:020000040800F2
:100000000050002001030008310100083101000800
:100010003101000831010008310100080000000032
:100020000000000000000000000000003101000896
:100030003101000800000000310100082D05000812
:1000400031010008310100083101000831010008C8
:1000500031010008310100083101000831010008B8
:1000600031010008310100083101000831010008A8
:100070003101000831010008310100083101000898
:100080003101000831010008310100083101000888
:100090003101000831010008310100083101000878
:1000A0003101000831010008310100083101000868
:1000B0003101000831010008A104000831010008E5
:1000C0003101000831010008310100083101000848
:1000D0003101000831010008310100083101000838
:1000E0003101000831010008000000003101000862
:1000F0003101000831010008310100083101000818
:100100003101000831010008310100083101000807
:1001100031010008310100083101000831010008F7
:1001200031010008310100083101000831010008E7
:1001300080B400AF00BFFDE780B58EB000AF0320F4
:1001400001F07EF903237B777B7F624A52F82330EC
:10015000BB61BB691B6843F00102BB691A6000BF49
:1001600000BF5D4A3B4607CA83E807003B46194685
:10017000032001F0B5F900BF032387F837300123CE
:1001800087F8363097F8373087F8353097F83530BC
:10019000504A52F823303B633B6B504A934203D999
:1001A0003B6B4F4A93420BD93B6B4E4A934205D966
:1001B0003B6B4D4A934201D84C4B02E0002300E0D8
:1001C0004B4B1B68FB6297F8372097F83730062BAC
:1001D00001D8002300E00723D31A9B00FA6A22FA11
:1001E00003F3FB62FB6ADAB297F836301340DBB2F6
:1001F000012BC1D1032387F82B3097F82B3087F8D8
:100200002A3097F82A30334A52F823307B627B6ACF
:10021000324A934203D97B6A314A93420BD97B6AB3
:10022000304A934205D97B6A2F4A934201D82F4A1C
:1002300002E0002200E02E4A7B6A28498B420AD95C
:100240007B6A27498B4206D8796A2A4B0B441B11DB
:100250001B09DBB20FE07B6A22498B420AD97B6A19
:1002600021498B4206D8796A234B0B441B111B0989
:10027000DBB200E000233A62FB770123BB773B6AE5
:100280005B68B97FFA7F920001FA02F21A433B6A77
:100290005A6000BF00BF00BF0223FB754FF400533C
:1002A000BB82FB7DFB74FB7C144A52F82330FB605D
:1002B000FB68002B05D0FB68DA68BB8A5A40FB68F4
:1002C000DA6000BF00BF4FF47A7000F0D5F800BFCD
:1002D000E2E700BFE800002088170008070002409E
:1002E0006800024007040240480402400004024043
:1002F00000000240F8FFFDBFF8FBFDBF98170008A3
:10030000294D2A4C05E02A46151D23461C1D12685E
:100310001A60274B9C42F6D3264C03E023461C1D53
:1003200000221A60244B9C42F8D3244800F027FC9A
:10033000224800F00BFB03461C46002C00BF204B5C
:100340005B68204AA2FB03239B09184600F0CAF809
:100350001D4800F07DFD1C4800F05AFE01211B489D
:1003600000F00EFF72B600BF194B1B68184A43F02D
:100370000103136062B600BF00BF00F0C9F9022498
:100380004FF400552246134B53F822301C46002CE4
:1003900003D023692A461343236100BF00BFFFF740
:1003A000CBFEFFF7C5FE00BFC41700080000002009
:1003B0001801002018010020280100201C01002045
:1003C000D8000020D34D6210C80000200008004073
:1003D00010E000E09817000880B487B000AF7860A4
:1003E000234B3B613B691B6823F001023B691A60A8
:1003F0003B691B6923F001023B691A6100BF1C4B7A
:1004000000225A621A4A7B68013BD362184B7B6117
:100410007B691B6923F001027B691A617B691B6898
:1004200043F001027B691A6000BF00BF114B1B78CB
:10043000DBB2012BFAD10F4B00221A700C4BFB6080
:10044000FB681B6823F00102FB681A60FB681B69EC
:1004500023F00102FB681A6100BF054B1B69044AC7
:1004600023F00103136100BF1C37BD4680BC7047F9
:10047000000800401801002080B582B000AF78600D
:1004800003E040F2E630FFF7A7FF7B685A1E7A6070
:10049000002BF6D100BF00BF0837BD4680BD00006D
:1004A00080B483B000AF0D4B7B607B681B69DBB20F
:1004B00003F00103DBB2002B0BD0094B01221A70B1
:1004C000064B3B603B681B6923F001023B681A61E5
:1004D00000BF00BF0C37BD4680BC7047000800401D
:1004E0001801002080B483B000AF78600E4B00226A
:1004F0001A607B68013B0C4A23F07F41536861F32B
:10050000170353607B68013B074A23F07F419368E0
:1005100061F317039360044B06221A6000BF0C3787
:10052000BD4680BC704700BF10E000E080B400AF63
:10053000044B1B680133034A136000BFBD4680BCF7
:10054000704700BF2401002080B58AB000AF034689
:100550003960FB71FB797B777B7F6B4A52F82330E4
:100560003B623B6A002B01D10123C8E0FB793B775A
:10057000664B9B693A7F0232012101FA02F2114671
:10058000624A0B43936100BF3B689B7803F00C0306
:10059000DBB2082B06D03B689B7803F00C03DBB280
:1005A0000C2B06D1594B9B69584A43F001039361C8
:1005B00000BF3B6A5B687B613B6A1B683B613B6ACF
:1005C000DB68FB603B681B88FB84002387F82530D1
:1005D00076E0FB8C5B429BB21AB2B7F9263013402F
:1005E0001BB2FB83FB8B7B837B8B002B06D07B8B2F
:1005F00093FAA3F3B3FA83F3DBB200E00023072BF3
:1006000017D93B689B78C3F30103DBB219463B68FB
:100610009B78C3F38103DBB21A4607F11403F88B0E
:1006200000F088F897F8253043F0020387F825306A
:1006300016E03B689B78C3F30103DBB219463B68C5
:100640009B78C3F38103DBB21A4607F11003F88BE2
:1006500000F070F897F8253043F0010387F8253053
:100660003B689B7803F00303DBB2002B1FD13B6890
:100670009B7803F00C03DBB20C2B06D03B689B7815
:1006800003F00C03DBB2082B11D13B689B78C3F35A
:100690008103DBB2194607F10C02FB8B184600F010
:1006A0009EF897F8253043F0040387F82530B7F912
:1006B0001E30DB431AB2B7F9263013401BB2FB845D
:1006C000FB8C002B85D197F8253003F00203002B1B
:1006D00002D07A693B6A5A6097F8253003F001032B
:1006E000002B02D03A693B6A1A6097F8253003F074
:1006F0000403002B02D0FA683B6ADA600023184634
:100700002837BD4680BD00BF981700080010024082
:1007100080B582B000AF064B1B687B603B1D19465D
:100720000220FFF711FF034618460837BD4680BD7B
:100730009417000880B485B000AF3B600346FB808F
:100740000B467B7113463B71FB88BB81BB89002B39
:1007500006D0BB8993FAA3F3B3FA83F3DBB200E0CC
:100760000023FB73FB7B072B03D9FB7B083BDBB22E
:1007700000E0FB7BFB73FB7B9B00FB733B681B6810
:10078000FA7B0F2101FA02F2D2431A403B681A6049
:100790003B681B687A7902F00301FA7B01FA02F2E6
:1007A0001A433B681A607B79002B07D13B79032BF6
:1007B00002D03B79022B01D102233B713B681B68BD
:1007C0003A7902F00301FA7B023201FA02F21A438B
:1007D0003B681A6000BF1437BD4680BC704780B4C8
:1007E00083B000AF03463A60FB800B467B717B7998
:1007F000032B06D13B681A68FB881A433B681A60D2
:1008000009E07B79022B06D13B681B68FA88D2434A
:100810001A403B681A6000BF0C37BD4680BC704769
:1008200080B483B000AF387139603B681B6803F057
:1008300017023B681A603B681B683A79C2F3C4022E
:10084000D2B2120102F010023979C1F30201C9B229
:100850000A431A433B681A60002318460C37BD460A
:1008600080BC704780B483B000AF387139603B689A
:100870001B6823F47C123B681A603B681B683A795A
:10088000C2F30302D2B291043A79C2F30012D2B297
:10089000120411433A79C2F34012D2B252040A430D
:1008A0001A433B681A60002318460C37BD4680BCCB
:1008B000704780B483B000AFB88039603B681B6874
:1008C00023F47F5323F030033A6813603B681B68BE
:1008D0007A79C2F30202D2B2D1023A79C2F3021299
:1008E000D2B2120211433A79C2F30302D2B2120118
:1008F0000A431A433B681A60002318460C37BD466A
:1009000080BC704780B483B000AF387139603B68F9
:100910001B6823F4810323F480433A6813603B6827
:100920001B683A79C2F38002D2B291053A79C2F3D8
:100930000102D2B292030A431A433B681A600023B1
:1009400018460C37BD4680BC7047000080B584B0A7
:1009500000AF78600123FB73504B1B68BB6007F14D
:1009600008027B6811461879FFF75AFF0346FB73AC
:10097000FB7B002B01D0FB7B8CE0484ABB681360FB
:10098000474B5B68BB607B689B78002B1CD07B6807
:100990009B78022B0AD17B68DB7803F01003DBB273
:1009A000002B03D10123FB73FB7B73E03C4B1B68E3
:1009B0003B4A43F48033136000BF394B1B6803F498
:1009C0000033002BF9D000BF07F108027B68114605
:1009D000D878FFF747FF0346FB73FB7B002B01D062
:1009E000FB7B57E007F108017B681A785B781B02F4
:1009F0001A43002362F30F031846FFF75AFF03461A
:100A0000FB73FB7B002B01D0FB7B43E007F108026B
:100A10007B6811465879FFF775FF0346FB73FB7B34
:100A2000002B01D0FB7B35E01D4ABB6853607B681F
:100A30009B78022B0DD11A4B1B68194A43F0807327
:100A4000136000BF164B1B6803F00073002BF9D036
:100A500000BF7B689B78BB73114B5A68BB7B03F06C
:100A600003030F4913434B6000BF0D4B5A68BB7B18
:100A70009B00534003F00C03002BF6D100BF094844
:100A800000F00EF90346FB73FB7B002B01D0FB7BD0
:100A900000E0FB7B18461037BD4680BD00200240B9
:100AA00000100240D800002080B483B000AF78600E
:100AB0007A681378022161F3020313707A6813785D
:100AC000102161F3C703137000BF0C37BD4680BC13
:100AD000704780B483B000AF78607A68137843F0D1
:100AE000100313707A68137823F0200313707A6868
:100AF0001378072161F30303137000BF0C37BD4661
:100B000080BC704780B582B000AF78607B680222FD
:100B10001A707B6801331846FFF7DBFF00BF083708
:100B2000BD4680BD80B483B000AF78607A6813782A
:100B300023F00F0313707A681378042161F306130E
:100B400013707A68537823F00703537000BF0C3793
:100B5000BD4680BC704780B483B000AF78607A68CF
:100B60001378022161F3010313707A68137823F07C
:100B70000403137000BF0C37BD4680BC704780B5BE
:100B800082B000AF78607B6804331846FFF78CFFB3
:100B90007B6802331846FFF7B5FF7B681846FFF7FE
:100BA000C1FF7B6805331846FFF7D5FF00BF083744
:100BB000BD4680BD80B485B000AF7860364B5B68C1
:100BC0009B08DBB203F00303DBB2FB73FB7B012B5F
:100BD00007D0FB7B002B04D0FB7B022B01D0012331
:100BE00054E0FB7B022B0ED0022B4EDC002B02D0FC
:100BF000012B04D049E07B68284A1A6045E07B68F5
:100C0000264A1A6041E07B68244A1A60224B5B68DE
:100C10001B0CDBB203F00103DBB2002B02D17B68BB
:100C20001E4A1A601C4B5B681B0CDBB203F001030D
:100C3000DBB2BB7300237B73BB7B002B02D0012B89
:100C400003D00BE001237B7308E0134B5B685B0C64
:100C5000DBB203F00103DBB27B7300BF7A7B7B68FE
:100C60001B6823FA02F27B681A600B4B5B689B0CD3
:100C7000DBB203F00F03DBB20233DAB27B681B682E
:100C800003FB02F27B681A6000BF0023184614378A
:100C9000BD4680BC704700BF0010024000127A00C1
:100CA00080B592B000AF7860012387F847307B6849
:100CB0001846FFF77FFF034687F8473097F847301D
:100CC000002B02D097F847307CE07B681A687B687D
:100CD0000433BA617B610023FB743C4B5B68FB60AF
:100CE000FB6803F0F003FB60FB681B09FB60FB681B
:100CF000DBB2FB72FB7A072B03D9FB7A03F0070305
:100D0000FB74FB7C324AD35C1A46BB6923FA02F2BD
:100D10007B691A6000BF7B681A687B680833FA62D7
:100D2000BB62002387F82730284B5B683B623B6A35
:100D300003F4E0633B623B6A1B0A3B623B6ADBB243
:100D4000FB77FB7F032B04D9FB7F03F0030387F8BA
:100D5000273097F827301F4AD35C1A46FB6A23FADC
:100D600002F2BB6A1A6000BF7B681A687B680C33AA
:100D70003A64FB63002387F83B30144B5B687B636A
:100D80007B6B03F460537B637B6BDB0A7B637B6B66
:100D9000DBB287F8333097F83330032B05D997F857
:100DA000333003F0030387F83B3097F83B30094AB0
:100DB000D35C1A463B6C23FA02F2FB6B1A6000BF4D
:100DC00097F8473018464837BD4680BD00100240AE
:100DD000B4170008BC17000880B483B000AF786077
:100DE0007A68937A23F0060393727A68937A23F0F1
:100DF000010393727A68937A43F0100393727A68CE
:100E0000937A23F0080393727A68937A23F020038D
:100E100093727A68D37A23F00103D3727A68D37A13
:100E2000062161F34303D3727A68D37A43F0100347
:100E3000D3727A68D37A23F02003D3727A68D37A94
:100E400023F0C003D37200BF0C37BD4680BC70478F
:100E500080B582B000AF78607B6840F2E732DA801C
:100E60007B6847229A807B6800221A817868FFF7A6
:100E7000B3FF00BF0837BD4680BD80B485B000AF6A
:100E8000034639713A60FB71FB7903F00203002BD2
:100E900004D1FB7903F00803002B01D0082300E004
:100EA0000023FB733B681B881AB2FB7BFF2101FA0E
:100EB00003F31BB2DB431BB213401BB29AB23B6875
:100EC0001A803B681B881AB23B79C3F30003DBB27C
:100ED00003F00101FB7B073301FA03F319B23B79FD
:100EE000C3F34203DBB203F00700FB7B043300FAD9
:100EF00003F31BB20B4319B23B79C3F30013DBB20C
:100F000003F00100FB7B033300FA03F31BB20B4336
:100F100019B23B79C3F34013DBB203F00100FB7B52
:100F2000023300FA03F31BB20B4319B23B79C3F34C
:100F30008113DBB203F00300FB7B00FA03F31BB267
:100F40000B431BB213431BB29AB23B681A8000BF1B
:100F50001437BD4680BC704780B584B000AF786060
:100F60007B681B7B002B4FD07B681B689B699BB207
:100F70007B817B681B68DB699BB23B810023FB7331
:100F800000237B730023BB7328E0BB7B012202FAA2
:100F900003F37B737B681A7B7B7B1340DBB2002BF4
:100FA00019D07B7B032B0BD807F10A027B68787B77
:100FB000D97AFFF762FFFB7B43F00F03FB730AE074
:100FC00007F108027B68787BD97AFFF756FFFB7B35
:100FD00063F00F03FB73BB7B0133BB73BB7B032B42
:100FE000D3D9FB7B03F00F03002B03D07A897B68F6
:100FF0001B689A61FB7B03F0F003002B05D03A8954
:101000007B681B68DA6100E000BF1037BD4680BD19
:1010100080B588B000AF78607B681B68FB60FB68B8
:10102000B3F1804F06D1534BDB69524A43F00103C1
:10103000D36114E0FB68504A934206D14D4BDB6903
:101040004C4A43F00203D36109E0FB684B4A9342E8
:1010500005D1484BDB69474A43F00403D36100BF25
:101060007B681B68184600F0FFF87B681B683B61D3
:101070003B691B6823F001023B691A603B691B69ED
:1010800023F001023B691A6100BF7B681B687B612A
:101090007B691B6843F002027B691A6000BF7B68B2
:1010A000DA887B681B68DA627B689A887B681B68D1
:1010B0009A627B681A897B681B685A627B681B6826
:1010C0001A687B689B7AC3F30013DBB2DB01D9B2E9
:1010D0007B689B7AC3F34103DBB25B0103F06003DF
:1010E00019437B689B7AC3F30003DBB21B0103F057
:1010F000100319437B689B7AC3F3C003DBB2DB00A8
:1011000003F0080319437B689B7AC3F34013DBB2F7
:101110009B0003F004030B4319467B681B680A43DA
:101120001A607868FFF718FF7B681B68BB61BB69B2
:101130001B6823F00202BB691A6000BF7B681B6852
:10114000FB61FB695B6943F00102FB695A6100BF07
:10115000FB695B6903F00103002BF9D1FB691B6993
:1011600023F00102FB691A6100BF00BF2037BD46B2
:1011700080BD00BF00100240000400400008004095
:1011800080B485B000AF78600B46FB707B68DB688D
:10119000FB81FB7803F00103002B03D0FB8943F0B4
:1011A0000103FB81FB7803F00203002B04D1FB78E1
:1011B00003F00203002B03D0FB8943F00203FB8101
:1011C000FB7803F00403002B04D1FB7803F0040345
:1011D000002B03D0FB8943F00403FB81FB7803F071
:1011E0000803002B04D1FB7803F00803002B03D085
:1011F000FB8943F00803FB81FB7803F01003002B0D
:1012000004D1FB7803F01003002B03D0FB8943F0DB
:101210001003FB81FA897B68DA607B6803F1404345
:101220009B0AFB81FB890E4AD35C7B730D4A7B7B57
:101230005B09DBB252F823307A7B02F01F020121F6
:1012400001FA02F2104607497A7B5209D2B20343EF
:1012500041F8223000BF00BF1437BD4680BC704744
:10126000C017000800E100E080B485B000AF7860EE
:10127000244B1B69FB607B68B3F1804F03D1FB6893
:1012800043F00103FB607B681F4A934203D1FB6874
:1012900043F00203FB607B681C4A934203D1FB6866
:1012A00043F00403FB60174AFB6813617B68B3F1EA
:1012B000804F03D1FB6823F00103FB607B68124A77
:1012C000934203D1FB6823F00203FB607B680F4A63
:1012D000934203D1FB6823F00403FB6042F21073D6
:1012E0007B8100BF7B899BB25A1E92B27A81002B10
:1012F000F8D1044AFB68136100BF1437BD4680BCB7
:10130000704700BF00100240000400400008004089
:1013100080B590B000AF03463960FB71FB7987F868
:10132000233097F8233087F8223097F822303C4A50
:1013300052F82330FB61FB69BB61BB69394A9342B8
:1013400003D9BB69384A93420BD9BB69374A9342E8
:1013500005D9BB69364A934201D8364B02E00023D7
:1013600000E0354B7B617B69334A934206D1334BB6
:101370005B69324A43F00103536109E07B692D4AFE
:10138000934205D12D4B5B692C4A43F00203536114
:1013900000BF00BFFB693B613B691B6823F0010292
:1013A0003B691A6000BF00BFFB7987F82B3097F8C4
:1013B0002B3087F82A3097F82A30194A52F8233010
:1013C0007B627B6A1B6800BFFB6007F10C02396817
:1013D0003B684978987800F0B7F83B6807F10C0251
:1013E0001146184600F045F9FB68FA7987F83F2066
:1013F000BB6397F83F3087F8373097F83730084AA3
:1014000052F823303B63BB6BFB623B6BFA6A1A609A
:1014100000BF00BF002318464037BD4680BD00BF57
:10142000E800002007000240680002400704024074
:101430004804024000040240000002400010024044
:1014400080B586B000AF0346FB7107F108037B61EE
:1014500001217A69137861F30103137000217A691D
:10146000137861F38203137000217A69137861F3B2
:10147000C303137001217A69137861F304131370A5
:1014800000BF07F1080302333B6100213A6913787A
:1014900061F30103137001213A69137861F3820348
:1014A000137000BF07F108030133FB600021FA68E5
:1014B000137861F3010313700121FA68137861F363
:1014C0008203137000BF00BF07F10802FB791146C9
:1014D0001846FFF71DFF034618461837BD4680BD66
:1014E00080B586B000AF03463960FB71FB79FB73B2
:1014F000FB7BBB73BB7B134A52F82330BB60BB68DA
:101500001B6823F00102BB681A6000BF00BFFB79B3
:101510003968184600F0DAF8FB79FB75FB7DBB757E
:10152000BB7D084A52F823303B613B691B6843F09E
:1015300001023B691A6000BF00BF0023184618373C
:10154000BD4680BDE800002080B485B000AF387390
:1015500039727A607B681B6823F47C627B681A604E
:101560007B681B683A7AC2F30102D2B291023A7BDD
:10157000C2F30102D2B2120211433A7AC2F38002DC
:10158000D2B2D20111433A7BC2F38002D2B29201AD
:101590000A431A437B681A6000BF1437BD4680BCFB
:1015A000704780B483B000AF03463960FB713B687D
:1015B0001B6823F440523B681A603B681A68FB7949
:1015C0001B0303F440531A433B681A6000BF0C37F7
:1015D000BD4680BC704780B483B000AF034639601D
:1015E000FB713B681B6823F010023B681A603B6884
:1015F0001A68FB791B0103F010031A433B681A6059
:1016000000BF0C37BD4680BC704780B483B000AFCC
:1016100003463960FB713B681B6823F020023B687E
:101620001A603B681A68FB795B0103F020031A43D8
:101630003B681A6000BF0C37BD4680BC704780B461
:1016400083B000AF03463960FB713B681B6823F42D
:1016500080423B681A603B681A68FB799B0303F47D
:1016600080431A433B681A6000BF0C37BD4680BCFC
:10167000704780B582B000AF786039607B681B78B6
:10168000C3F30103DBB239681846FFF78AFF7B68B2
:101690001B78C3F38003DBB239681846FFF79BFF62
:1016A0007B681B78C3F3C003DBB239681846FFF7C9
:1016B000ACFF7B681B78C3F30013DBB239681846B4
:1016C000FFF7BDFF00BF0837BD4680BD80B491B0B5
:1016D00000AF03463960FB71FB7987F8333097F828
:1016E0003330284A52F82330FB63FB7987F83B30CC
:1016F00097F83B3087F83A3097F83A30214A52F859
:1017000023307B637B6B1B681B09DBB203F0010397
:10171000DBB2002B13D13B681B681A46FB6B7B6264
:101720003A627B6A3A6A9A6000BF3B685B681A4615
:10173000FB6BFB62BA62FB6ABA6ADA6013E03B6871
:101740001B681A46FB6B7B613A617B693A69DA6018
:1017500000BF3B685B681A46FB6BFB61BA61FB69C3
:10176000BA699A6000BF3B681B891A46FB6BFB6035
:10177000BA60FB68BA685A6000BF00BF4437BD4614
:1017800080BC7047E80000200000002064000020BA
:10179000640000000020020000080140000C01402D
:1017A000001001400014014000180140001C0140DD
:1017B0000020014001020304060708090102030496
:0417C0001C1D1E00CE
:1017C40024242424242424242424242424242424D5
:1017D40024242424242424242424242424242424C5
:1017E40024242424242424242424242424242424B5
:1017F40024242424242424242424242424242424A5
:101804002424242424242424242424242424242494
:101814002424242424242424242424242424242484
:101824002424242455555555555555555555555528
:101834005555555555555555555555555555555554
:101844005555555555555555555555555555555544
:101854005555555555555555555555555555555534
:101864005555555555555555555555555555555524
:101874005555555555555555555555555555555514
:101884005555555555555555000800400000000064
:10189400000000000000000000127A0000127A002C
:1018A40000127A0000127A00080002401800024078
:1018B400280002403800024048000240580002401C
:1018C4006800024008040240180402402804024050
:0818D400380402404804024000
:0400000508000301EB
:00000001FF
